:100000007AC000008BC0000089C0000087C00000DB
:1000100085C0000083C0000081C000007FC00000D8
:100020007DC000007BC0000079C0000077C00000E8
:1000300075C0000073C0000071C000006FC00000F8
:100040006DC00000FDC5000069C0000067C0000071
:1000500065C0000063C0000061C000005FC0000018
:100060005DC000005BC0000059C0000057C0000028
:1000700055C0000053C0000051C000004FC0000038
:100080004DC000004BC0000049C0000047C0000048
:100090000C94B20A43C000000C94770A3FC00000E1
:1000A0003DC000003BC0000039C0000037C0000068
:1000B00035C0000033C0000031C000002FC0000078
:1000C0002DC000002BC0000029C000000C94190BAB
:1000D00025C0000023C0000021C000001FC0000098
:1000E0001DC00000D504B204D504E104D804EE0418
:1000F000F4040105030511241FBECFEFD1E2DEBFDA
:10010000CDBF00E00CBF27E1A0E0B2E001C01D922E
:10011000A83EB207E1F7D1D50C94070C71CF0F922E
:100120001F922F923F924F925F926F927F928F9287
:100130009F92AF92BF92CF92DF92EF92FF920F9376
:100140001F932F933F934F935F936F937F938F935F
:100150009F93AF93BF93CF93DF93EF93FF93FCB73E
:10016000FF930FB70F93EDB7FEB7E093DE17F09351
:10017000DF17E091DC17F091DD17EDBFFEBF0F91A7
:100180000FBFFF91FCBFFF91EF91DF91CF91BF9126
:10019000AF919F918F917F916F915F914F913F911F
:1001A0002F911F910F91FF90EF90DF90CF90BF9014
:1001B000AF909F908F907F906F905F904F903F9007
:1001C0002F901F900F9018950F921F922F923F9291
:1001D0004F925F926F927F928F929F92AF92BF9257
:1001E000CF92DF92EF92FF920F931F932F933F9343
:1001F0004F935F936F937F938F939F93AF93BF932F
:10020000CF93DF93EF93FF93FCB7FF930FB70F9359
:10021000EDB7FEB7E093DC17F093DD17E091DE1742
:10022000F091DF17EDBFFEBF0F910FBFFF91FCBF35
:10023000FF91EF91DF91CF91BF91AF919F918F91FE
:100240007F916F915F914F913F912F911F910F91EE
:10025000FF90EF90DF90CF90BF90AF909F908F90E6
:100260007F906F905F904F903F902F901F900F90D6
:100270000895FFCF8091B4049091B504892B69F063
:10028000F894E091B804F091B904E85FFE4F83E080
:10029000808380E180930B0197CF0895FC0180A1BA
:1002A00091A1409719F48CE088B9FFCFA4A1B5A122
:1002B000AA0FBB1FAE0FBF1F11967C936E9380A138
:1002C00091A1019691A380A384A195A1019660E1DB
:1002D00070E00E94C70B95A384A30895CF93DF938A
:1002E000FC0180A191A1892B19F48DE088B9FFCF81
:1002F000A2A1B3A1AA0FBB1FAE0FBF1FCD91DC916E
:1003000020A131A12150310931A320A322A133A181
:10031000C901019660E170E00E94C70B93A382A31C
:10032000CE01DF91CF910895809102059091030550
:10033000181619061CF482EE94E01DC08091280561
:1003400090912905181619061CF488E095E013C051
:1003500080914E0590914F05181619061CF48EE2F7
:1003600095E009C08091DC049091DD04181619060F
:100370009CF48CEB94E0B2DF9093B9048093B804C2
:10038000FC01238134813093DD172093DC17EB5F70
:10039000FE4F82E08083089588E188B9FFCFCF9334
:1003A000DF93EC018A81813069F0C8F0823031F04E
:1003B0008330D1F4BE018CEB94E014C0BE018EE218
:1003C00095E010C0BE0188E095E068DF80912805C7
:1003D0009091290502975CF085E088B9FFCFBE01B6
:1003E00082EE94E05BDF03C08CE788B9FFCFCB5F80
:1003F000DE4F81E08883DF91CF9108958F929F92A5
:10040000AF92BF92CF92DF92EF92FF920F93CF9372
:10041000DF93EC01FC013596812C99249394DF0144
:10042000C4011D920197E9F7E150FF4F8AE391E083
:100430008083319790833197108231976083319711
:10044000708331971082DE01A452BF4FB297808132
:1004500080688083BC83AB83B99671836083329656
:1004600010829D9611965C934E93398328830A835C
:1004700010823996F182E0823296D182C082329621
:10048000B182A0823296B182A0823296118210820D
:10049000013021F484E07497808302C0CE017FDFB5
:1004A00088819981DF91CF910F91FF90EF90DF903C
:1004B000CF90BF90AF909F908F900895AF92BF92D2
:1004C000CF92DF92EF92FF920F931F93E091B204CD
:1004D000F091B304709761F1A9E5B6E0E0E0F0E0D7
:1004E0005C91552331F03196AE5DBE4FE031F105A0
:1004F000B9F7570168017901042FAB01BC01809164
:10050000B2049091B30401969093B3048093B20423
:100510009F012F5F3F4FA2E2B1E0EA9FC001EB9F36
:10052000900DFA9F900D11248C5A9A4F67DF02C0EC
:1005300080E090E01F910F91FF90EF90DF90CF90BF
:10054000BF90AF9008958091000290910102409772
:1005500018F082E088B9FFCF2091000230910102AB
:100560008BE2829FF001839FF00D1124EE5FFD4F1F
:1005700091E090832091000230910102829FF0016E
:10058000839FF00D1124EE5FFD4F14A213A2209162
:10059000000230910102829FF001839FF00D11242F
:1005A000EE5FFD4F16A215A22091000230910102CC
:1005B000829FF001839FF00D1124EE5FFD4F10A686
:1005C00017A280910002909101020196909301027E
:1005D000809300020895AF92BF92CF92DF92EF9284
:1005E000FF920F931F93CF93DF93A091B804B09124
:1005F000B90412968C911297813019F483E088B96E
:10060000FFCFFD01E35FFE4F208131812150310991
:100610008BE2829FA001839F500D1124FA01EE5FAF
:10062000FD4F9081911103C082E088B9FFCF9230D5
:1006300019F484E088B9FFCFED01C15FDE4F288156
:10064000398132A721A7933089F5EF016F0183E249
:10065000C80ED11CDA01AB5FBD4F7D015F01B9E26D
:10066000AB0EB11CF6018081918118161906DCF4DD
:10067000C70134DE8C01FC01E55FFE4FD5018D9191
:100680009C9191838083C8018ADE8091B804909107
:10069000B904FC012281D80112963C91321710F75F
:1006A0007EDE42DEDFCF81E0888308C082E0808387
:1006B000B283A183AB5FBE4F83E08C93DF91CF9178
:1006C0001F910F91FF90EF90DF90CF90BF90AF9070
:1006D0000895EF92FF920F931F93CF93DF93C091F2
:1006E000B804D091B9048A81813019F483E088B9C3
:1006F000FFCFFE01E35FFE4FE080F18081E0E81A6A
:10070000F1082BE22E9DC0012F9D900D11248C012C
:100710000E5F1D4FD8012C91211103C082E088B9D2
:10072000FFCF223039F5F80181A592A5FE01E55FE2
:10073000FE4F91838083D80111968D919C911297E1
:100740002EDE8A81D8011196ED91FC91129792814B
:10075000981718F4CE0123DEE7DD8BE28E9DF001C1
:100760008F9DF00D1124EE5FFD4F1282118281E00A
:1007700080830AC0BE018B5F9D4F90DD83E0F8014E
:100780008083CB5FDE4F8883DF91CF911F910F91E4
:10079000FF90EF900895AF92BF92CF92DF92EF92C9
:1007A000FF920F931F93CF93DF932091B804309162
:1007B000B904F901E35FFE4F408151814150510975
:1007C0008BE2849FB001859F700D1124EB01CE5FF9
:1007D000DD4F9881911103C082E088B9FFCF92303C
:1007E00019F484E088B9FFCF9330B1F5F901E15FE6
:1007F000FE4F808191819AA789A76E0183E2C80E7E
:10080000D11CDB01AB5FBD4F7D015E01B9E2AB0ED8
:10081000B11CF6018081918118161906DCF4C7011C
:100820005DDD8C01FC01E55FFE4FD5018D919C9152
:1008300091838083C801B3DD8091B8049091B9049D
:10084000FC012281D80112963C91321710F7A7DDE6
:100850006BDDDFCF81E08883DF91CF911F910F9116
:10086000FF90EF90DF90CF90BF90AF9008951092DF
:10087000B3041092B2041092B5041092B404109212
:10088000B7041092B604E4E5F5E082E291E0DF01FE
:100890009C011D9221503040E1F7DF01AB5FBE4F5C
:1008A0001C92EE5DFE4F37E1E437F30781F71092BB
:1008B000010210920002E2E0F2E08BE2DF01282F59
:1008C0001D922A95E9F71082BB9634E0E23BF307CC
:1008D000A9F70895AF92BF92DF92EF92FF920F9324
:1008E0001F93CF93DF938091B4049091B504892B2B
:1008F00009F08BC08091B2049091B304892B09F464
:1009000084C0F89481E090E09093B5048093B4049F
:100910000BDD84E0D82EE091B804F091B904DF013A
:10092000A85FBE4F1C92838194819093DD178093C2
:10093000DC17F5DBC091B804D091B9048091DC17C5
:100940009091DD179C838B83FE01E85FFE4F8081D1
:1009500090E089309105F8F6FC018827EE58FF4FAA
:100960008F4F28C7FE01E05EFE4FE080F180329796
:10097000008111813297208131815E0185EEA81AB4
:100980008EEFB80AF50140817297608171813397CB
:100990008081918193DDF5018081823008F0BBCFA9
:1009A00090818A81981708F0B6CFCE01F8DC27C075
:1009B000FE01E75EFE4F11821082CB5FDE4FD882D0
:1009C0001EC0CB5FDE4F18828091B2049091B304B9
:1009D00001979093B3048093B20411C0B4DDC55F56
:1009E000DE4F9983888397CFF6DDE091B804F091CC
:1009F000B904EB5FFE4F8081833009F08CCF94DC2B
:100A00008ACF67DEF2CFC7DE86CFDF91CF911F910D
:100A10000F91FF90EF90DF90BF90AF900895EF920D
:100A2000FF920F931F932091B4043091B504232BB0
:100A300001F1F8942091B8043091B904F901E85F0C
:100A4000FE4F41E0408332979183808333967183D8
:100A500060837296108231961182108232961182D2
:100A6000108232961182108280E180930B01ACDB00
:100A700008C0E12CF12C00E010E020E030E040E084
:100A80001DDDE091B804F091B904808191811F913E
:100A90000F91FF90EF900895EF92FF920F931F93A5
:100AA0002091B4043091B504232B29F1F894E091FE
:100AB000B804F091B904DF01A85FBE4F21E02C9388
:100AC000129711969C938E93139611967C936E9326
:100AD00083E08283189611961C921E9212961196AC
:100AE0001C921E92EB5EFE4F1182108280E1809379
:100AF0000B016ADB08C0E12CF12C00E010E020E0E3
:100B000030E043E0DBDCE091B804F091B90480818F
:100B100091811F910F91FF90EF9008958091B404FF
:100B20009091B504892B69F0F894E091B804F091A4
:100B3000B904E85FFE4F82E0808380E180930B017F
:100B400043CB0895F89410928000E1E8F0E0108221
:100B500080818860808380818260808380E29EE4DF
:100B60009093890080938800EFE6F0E080818260B6
:100B70008083109285001092840078940895EF92FB
:100B8000FF920F931F93CF93DF938091BA049091BC
:100B9000BB0401969093BB048093BA04C9E5D6E0E8
:100BA00000E010E07E0183E0E81A81E0F80AF70136
:100BB00020813881213079F4343089F08C899D8905
:100BC00001969D8B8C8B4E855F858417950718F059
:100BD00086E088B9FFCF3430A9F4213099F48A89AE
:100BE0009B892091BA043091BB048217930751F47A
:100BF0002C853D85820F931F9B8B8A8BCE01855060
:100C00009140CDDBF7018081813031F488818150C2
:100C1000823010F40F5F1F4FCE5DDE4FF8E1C93711
:100C2000DF0709F0BFCF023011051CF085E088B95D
:100C3000FFCFDF91CF911F910F91FF90EF9008951B
:100C40001F920F920FB60F9211240BB60F922F9393
:100C50003F934F935F936F937F938F939F93AF9344
:100C6000BF93EF93FF938BDFE091B804F091B90449
:100C70008281823008F052DFFF91EF91BF91AF91F6
:100C80009F918F917F916F915F914F913F912F91A4
:100C90000F900BBE0F900FBE0F901F901895EAE0BB
:100CA000F1E080818460808380818860808380819E
:100CB000806180838FEF87B90895D9DDF0DF60E030
:100CC00070E089E391E0E8DE62E070E089E798E0B7
:100CD000A6DE38DFFFDD80E090E00895C5D3D5D3F0
:100CE00072D411D2089A10988BC2CF92DF92EF92F1
:100CF000FF920F931F93CF93DF93CDB7DEB7CA5FF9
:100D0000D1090FB6F894DEBF0FBECDBF8091E017BA
:100D10009091E117019709F0DEC0D4D38A3308F02F
:100D2000DAC0833209F0D7C000E010E0E12CF12CEA
:100D30008A3320F08C3709F0CEC006C0833221F40C
:100D400000E010E0E12CF12C2091E0173091E11748
:100D50002130310569F7B6D3853209F04DC082E004
:100D6000E816F104C1F048F4E114F10489F0EA94C2
:100D7000EF28D9F4E3E3F0E013C093E0E916F104BF
:100D800069F084E0E816F10481F4E9ECF0E008C0D1
:100D9000E1E0F0E005C0E5E6F0E002C0E7E9F0E000
:100DA000EC0FFD1FE00FF11F1082CE0101960AD556
:100DB0009093851780938417CE01C39603D59093A3
:100DC000831780938217CE018B599F4FFBD490934A
:100DD000771780937617CE0189569F4FF3D490935F
:100DE000811780938017CE0187539F4FEBD4909348
:100DF0007F1780937E176FC08C3769F592E0E916F4
:100E0000F104C9F050F4E114F10491F091E0E91615
:100E1000F104D9F4E3E3F0E013C093E0E916F10440
:100E200069F094E0E916F10481F4E9ECF0E008C01F
:100E3000E1E0F0E005C0E5E6F0E002C0E7E9F0E05F
:100E4000EC0FFD1FE00FF11F10829FEFE91AF90A66
:100E500000E010E06FCF92E0E916F10401F140F4F8
:100E6000E114F10471F091E0E916F10489F060CF2A
:100E700093E0E916F104D1F094E0E916F104E9F009
:100E800057CF0033110508F053CFE1E0F0E01BC06D
:100E90000033110508F04CCFE3E3F0E014C0003359
:100EA000110508F045CFE5E6F0E00DC0003311056F
:100EB00008F03ECFE7E9F0E006C00033110508F086
:100EC00037CFE9ECF0E0EC0FFD1FE00FF11F80835E
:100ED0000F5F1F4F2DCF0FB6F894DEBF0FBECDBFF3
:100EE000C650DF4F0FB6F894DEBF0FBECDBFDF9107
:100EF000CF911F910F91FF90EF90DF90CF900895C9
:100F00002091781730917917809176179091771703
:100F100028173907B9F08091761790917717909339
:100F20007917809378178091761790917717892B8E
:100F300011F4109808958091761790917717019782
:100F400009F4109A089520917C1730917D178091B3
:100F50008017909181172817390761F420917A172B
:100F600030917B1780917E1790917F172817390752
:100F700009F46BC06091801770918117072E000CE7
:100F8000880B990B8DD320E030E04AEF53E4E7D390
:100F900018161CF484EF91E012C0609180177091D4
:100FA0008117072E000C880B990B7AD320E030E0D4
:100FB0004AEF53EC6FD387FF06C08CE09EEF90930F
:100FC00081178093801760917E1770917F17072E8D
:100FD000000C880B990B64D320E030E04AEF54E416
:100FE000BED318161CF480ED97E012C060917E17F6
:100FF00070917F17072E000C880B990B51D320E0BE
:1010000030E04AEF54EC46D387FF06C080E398EF08
:1010100090937F1780937E1780918017909181170E
:1010200090937D1780937C1780917E1790917F1706
:1010300090937B1780937A1760917E1770917F173A
:101040008091801790918117ABC00895809182178D
:101050009091831765D1809184179091851702C173
:10106000009741F0EFE3FCE93197F1F700C0000091
:101070000197F6CF0895B1D0019761F4809174176C
:1010800090917517019731F082E090E09093751779
:10109000809374178091741790917517029799F443
:1010A00081E090E0909375178093741760E070E092
:1010B00084ED9EEF75D084E690E0D2DF60E070E0D2
:1010C00080E090E06DD089D0892B21F410927517C3
:1010D00010927417089509DE13DFB8DF34DFCBDF19
:1010E000109285171092841710928317109282170E
:1010F000F2CF60E070E08EE696E091DC61E070E0B7
:101100008BE698E08CCC099A119A5DD22FEF81E1A1
:101110009AE7215080409040E1F700C0000011980C
:101120002FEF85EA9EE0215080409040E1F700C01B
:101130000000119A2FEF85EA9EE0215080409040F8
:10114000E1F700C0000011982FEF85EA9EE02150E2
:1011500080409040E1F700C00000119A2FEF85EA2F
:101160009EE0215080409040E1F700C000001198BF
:101170002FEF85EA9EE0215080409040E1F700C0CB
:101180000000119A20D280E84DD22FEF83EC99E035
:10119000215080409040E1F700C0000083E842C247
:1011A0001F93CF93DF9300D0CDB7DEB7182F89E818
:1011B0006B837A83998336D29981892F33D2812F99
:1011C00031D27A81872F2ED26B81862F0F900F908C
:1011D0000F90DF91CF911F9125C28EE823D287E037
:1011E00021D28091E0179091E1170197D1F705D2B4
:1011F00021E030E0811102C020E030E0C901089513
:101200008DB180638DB98EB18F7C8EB910929500AF
:1012100010929400A0E9B0E01C92E1E9F0E01082A5
:1012200089E28C9380818361808384EC99E0909340
:101230009900809398008CEB90E09093E71780934F
:10124000E6179093E5178093E41790939D008093A1
:101250009C008091E4179091E51790939B008093F8
:101260009A000895CF92DF92EF92FF92CF93DF938F
:10127000EC01BC01990F880B990B12D26B017C0118
:1012800020E030E040EA50E46AD2181664F020E032
:1012900030E040EA50ECC701B601FCD187FF05C041
:1012A000CBEFDFEF02C0C5E0D0E08091E617909170
:1012B000E717C80FD91FBE010D2E000C880B990B24
:1012C000EFD16B017C0120E030E046E953E447D2E6
:1012D00018161CF48CE291E010C020E030E04AE8DF
:1012E00052E4C701B601D6D187FD05C0D093E717F8
:1012F000C093E61706C085E490E09093E7178093CB
:10130000E6178091E6179091E71790939D008093E0
:101310009C00DF91CF91FF90EF90DF90CF900895E8
:10132000CF92DF92EF92FF92CF93DF93EC01BC015B
:10133000990F880B990BB4D16B017C0120E030E050
:1013400040EA50E40CD2181664F020E030E040EAA5
:1013500050ECC701B6019ED187FF05C0CBEFDFEF90
:1013600002C0C5E0D0E08091E4179091E517C80F66
:10137000D91FBE010D2E000C880B990B91D16B016A
:101380007C0120E030E046E953E4E9D118161CF472
:101390008CE291E010C020E030E04AE852E4C7015E
:1013A000B60178D187FD05C0D093E517C093E41747
:1013B00006C085E490E09093E5178093E417809150
:1013C000E4179091E51790939B0080939A00DF912A
:1013D000CF91FF90EF90DF90CF900895FC01138E96
:1013E000128E118E108E178A168A0895FC01A08D18
:1013F000B18DA80FB91F6C93808D918D0196918F3F
:10140000808F469710F0118E108E868997894697A7
:1014100030F4868997890196978B868B0895828D03
:10142000938D0196938F828F0895FC018689978909
:10143000892BC1F0828D938D9C012F5F3F4F338F9D
:10144000228F228D338D2631310510F0138E128EAE
:101450002689378921503109378B268BE80FF91FF0
:101460008081089580E008951092C50087E68093FA
:10147000C400E0ECF0E080818D7F808386E0809383
:10148000C20088E18093C10008951092CD0087E6E4
:101490008093CC00E8ECF0E080E4808388ED8093DA
:1014A000C90086E08093CA0080818D7F808380ECB4
:1014B00097E194DF84EA97E191DF1092E1171092AF
:1014C000E01708958091D6179091D717892B69F06E
:1014D0008091D6179091D717019721F41092E117B8
:1014E0001092E01780EC97E1A0CF80E008951F9262
:1014F0000F920FB60F9211240BB60F922F933F93BA
:101500004F935F936F937F938F939F93AF93BF930B
:10151000EF93FF938091BA179091BB17892B31F00D
:1015200084EA97E182DF8093CE0009C08091A21700
:101530009091A3178E7F9093A3178093A217FF918A
:10154000EF91BF91AF919F918F917F916F915F913B
:101550004F913F912F910F900BBE0F900FBE0F90A8
:101560001F9018951F920F920FB60F9211240BB671
:101570000F922F933F934F935F936F937F938F932C
:101580009F93AF93BF93EF93FF936091CE0080EC56
:1015900097E12CDF81E090E09093E1178093E017D2
:1015A000FF91EF91BF91AF919F918F917F916F913B
:1015B0005F914F913F912F910F900BBE0F900FBEF7
:1015C0000F901F9018951092D50083E38093D4005C
:1015D000E0EDF0E080E4808388E98093D10086E04C
:1015E0008093D20080818D7F808386E897E1F6DE4C
:1015F0001092E3171092E217089580919C17909132
:101600009D17892B69F080919C1790919D170197E8
:1016100021F41092E3171092E21786E897E105CFC4
:1016200080E008959091D00095FFFCCF8093D60084
:1016300008951F920F920FB60F9211240BB60F92BE
:101640002F933F934F935F936F937F938F939F93CA
:10165000AF93BF93EF93FF936091D60086E897E135
:10166000C5DE81E090E09093E3178093E217FF914D
:10167000EF91BF91AF919F918F917F916F915F910A
:101680004F913F912F910F900BBE0F900FBE0F9077
:101690001F90189540D008F481E00895E89409C09F
:1016A00097FB3EF490958095709561957F4F8F4F95
:1016B0009F4F9923A9F0F92F96E9BB279395F695AB
:1016C000879577956795B795F111F8CFFAF4BB0F29
:1016D00011F460FF1BC06F5F7F4F8F4F9F4F16C08D
:1016E000882311F096E911C0772321F09EE8872F17
:1016F000762F05C0662371F096E8862F70E060E0D3
:101700002AF09A95660F771F881FDAF7880F96954B
:10171000879597F90895990F0008550FAA0BE0E8EF
:10172000FEEF16161706E807F907C0F012161306A3
:10173000E407F50798F0621B730B840B950B39F4E3
:101740000A2661F0232B242B252B21F408950A2649
:1017500009F4A140A6958FEF811D811D0895DBDF5F
:1017600008F48FEF0895AA1BBB1B51E107C0AA1F05
:10177000BB1FA617B70710F0A61BB70B881F991F32
:101780005A95A9F780959095BC01CD01089597FBD6
:10179000072E16F4009406D077FD08D0E4DF07FC8E
:1017A00005D03EF4909581959F4F08957095619571
:1017B0007F4F0895EE0FFF1F881F8BBF0790F69194
:1017C000E02D1994FC0188279927E8942191203273
:1017D000E9F3293010F02E30C8F32B3239F02D32D6
:1017E00031F4689403C00BD0820F911D21912053D6
:1017F0002A30C8F31EF4909581959F4F08957AE0A2
:10180000979F902D879F802D910D11240895F89416
:02181000FFCF08
:00000001FF
