:100000007AC000008BC0000089C0000087C00000DB
:1000100085C0000083C0000081C000007FC00000D8
:100020007DC000007BC0000079C0000077C00000E8
:1000300075C0000073C0000071C000006FC00000F8
:100040006DC0000015C6000069C0000067C0000058
:1000500065C0000063C0000061C000005FC0000018
:100060005DC000005BC0000059C0000057C0000028
:1000700055C0000053C0000051C000004FC0000038
:100080004DC000004BC0000049C0000047C0000048
:100090000C94E70A43C000000C94AC0A3FC0000077
:1000A0003DC000003BC0000039C0000037C0000068
:1000B00035C0000033C0000031C000002FC0000078
:1000C0002DC000002BC0000029C000000C944E0B76
:1000D00025C0000023C0000021C000001FC0000098
:1000E0001DC00000D504B204D504E104D804EE0418
:1000F000F4040105030511241FBECFEFD1E2DEBFDA
:10010000CDBF00E00CBF2DE1A0E0B2E001C01D9228
:10011000A438B207E1F7E9D50C943C0C71CF0F92EB
:100120001F922F923F924F925F926F927F928F9287
:100130009F92AF92BF92CF92DF92EF92FF920F9376
:100140001F932F933F934F935F936F937F938F935F
:100150009F93AF93BF93CF93DF93EF93FF93FCB73E
:10016000FF930FB70F93EDB7FEB7E0937A1DF093AF
:100170007B1DE091781DF091791DEDBFFEBF0F91C1
:100180000FBFFF91FCBFFF91EF91DF91CF91BF9126
:10019000AF919F918F917F916F915F914F913F911F
:1001A0002F911F910F91FF90EF90DF90CF90BF9014
:1001B000AF909F908F907F906F905F904F903F9007
:1001C0002F901F900F9018950F921F922F923F9291
:1001D0004F925F926F927F928F929F92AF92BF9257
:1001E000CF92DF92EF92FF920F931F932F933F9343
:1001F0004F935F936F937F938F939F93AF93BF932F
:10020000CF93DF93EF93FF93FCB7FF930FB70F9359
:10021000EDB7FEB7E093781DF093791DE0917A1D5C
:10022000F0917B1DEDBFFEBF0F910FBFFF91FCBF93
:10023000FF91EF91DF91CF91BF91AF919F918F91FE
:100240007F916F915F914F913F912F911F910F91EE
:10025000FF90EF90DF90CF90BF90AF909F908F90E6
:100260007F906F905F904F903F902F901F900F90D6
:100270000895FFCF8091B4049091B504892B69F063
:10028000F894E091B804F091B904E85FFE4F83E080
:10029000808380E180930B0197CF0895FC0180A1BA
:1002A00091A1409719F48CE088B9FFCFA4A1B5A122
:1002B000AA0FBB1FAE0FBF1F11967C936E9380A138
:1002C00091A1019691A380A384A195A1019660E1DB
:1002D00070E00E94FC0B95A384A30895CF93DF9355
:1002E000FC0180A191A1892B19F48DE088B9FFCF81
:1002F000A2A1B3A1AA0FBB1FAE0FBF1FCD91DC916E
:1003000020A131A12150310931A320A322A133A181
:10031000C901019660E170E00E94FC0B93A382A3E7
:10032000CE01DF91CF910895809102059091030550
:10033000181619061CF482EE94E01DC08091280561
:1003400090912905181619061CF488E095E013C051
:1003500080914E0590914F05181619061CF48EE2F7
:1003600095E009C08091DC049091DD04181619060F
:100370009CF48CEB94E0B2DF9093B9048093B804C2
:10038000FC01238134813093791D2093781DEB5F2C
:10039000FE4F82E08083089588E188B9FFCFCF9334
:1003A000DF93EC018A81813069F0C8F0823031F04E
:1003B0008330D1F4BE018CEB94E014C0BE018EE218
:1003C00095E010C0BE0188E095E068DF80912805C7
:1003D0009091290502975CF085E088B9FFCFBE01B6
:1003E00082EE94E05BDF03C08CE788B9FFCFCB5F80
:1003F000DE4F81E08883DF91CF9108958F929F92A5
:10040000AF92BF92CF92DF92EF92FF920F93CF9372
:10041000DF93EC01FC013596812C99249394DF0144
:10042000C4011D920197E9F7E150FF4F8AE391E083
:100430008083319790833197108231976083319711
:10044000708331971082DE01A452BF4FB297808132
:1004500080688083BC83AB83B99671836083329656
:1004600010829D9611965C934E93398328830A835C
:1004700010823996F182E0823296D182C082329621
:10048000B182A0823296B182A0823296118210820D
:10049000013021F484E07497808302C0CE017FDFB5
:1004A00088819981DF91CF910F91FF90EF90DF903C
:1004B000CF90BF90AF909F908F900895AF92BF92D2
:1004C000CF92DF92EF92FF920F931F93E091B204CD
:1004D000F091B304709761F1A9E5B6E0E0E0F0E0D7
:1004E0005C91552331F03196AE5DBE4FE031F105A0
:1004F000B9F7570168017901042FAB01BC01809164
:10050000B2049091B30401969093B3048093B20423
:100510009F012F5F3F4FA2E2B1E0EA9FC001EB9F36
:10052000900DFA9F900D11248C5A9A4F67DF02C0EC
:1005300080E090E01F910F91FF90EF90DF90CF90BF
:10054000BF90AF9008958091000290910102409772
:1005500018F082E088B9FFCF2091000230910102AB
:100560008BE2829FF001839FF00D1124EE5FFD4F1F
:1005700091E090832091000230910102829FF0016E
:10058000839FF00D1124EE5FFD4F14A213A2209162
:10059000000230910102829FF001839FF00D11242F
:1005A000EE5FFD4F16A215A22091000230910102CC
:1005B000829FF001839FF00D1124EE5FFD4F10A686
:1005C00017A280910002909101020196909301027E
:1005D000809300020895AF92BF92CF92DF92EF9284
:1005E000FF920F931F93CF93DF93A091B804B09124
:1005F000B90412968C911297813019F483E088B96E
:10060000FFCFFD01E35FFE4F208131812150310991
:100610008BE2829FA001839F500D1124FA01EE5FAF
:10062000FD4F9081911103C082E088B9FFCF9230D5
:1006300019F484E088B9FFCFED01C15FDE4F288156
:10064000398132A721A7933089F5EF016F0183E249
:10065000C80ED11CDA01AB5FBD4F7D015F01B9E26D
:10066000AB0EB11CF6018081918118161906DCF4DD
:10067000C70134DE8C01FC01E55FFE4FD5018D9191
:100680009C9191838083C8018ADE8091B804909107
:10069000B904FC012281D80112963C91321710F75F
:1006A0007EDE42DEDFCF81E0888308C082E0808387
:1006B000B283A183AB5FBE4F83E08C93DF91CF9178
:1006C0001F910F91FF90EF90DF90CF90BF90AF9070
:1006D0000895EF92FF920F931F93CF93DF93C091F2
:1006E000B804D091B9048A81813019F483E088B9C3
:1006F000FFCFFE01E35FFE4FE080F18081E0E81A6A
:10070000F1082BE22E9DC0012F9D900D11248C012C
:100710000E5F1D4FD8012C91211103C082E088B9D2
:10072000FFCF223039F5F80181A592A5FE01E55FE2
:10073000FE4F91838083D80111968D919C911297E1
:100740002EDE8A81D8011196ED91FC91129792814B
:10075000981718F4CE0123DEE7DD8BE28E9DF001C1
:100760008F9DF00D1124EE5FFD4F1282118281E00A
:1007700080830AC0BE018B5F9D4F90DD83E0F8014E
:100780008083CB5FDE4F8883DF91CF911F910F91E4
:10079000FF90EF900895AF92BF92CF92DF92EF92C9
:1007A000FF920F931F93CF93DF932091B804309162
:1007B000B904F901E35FFE4F408151814150510975
:1007C0008BE2849FB001859F700D1124EB01CE5FF9
:1007D000DD4F9881911103C082E088B9FFCF92303C
:1007E00019F484E088B9FFCF9330B1F5F901E15FE6
:1007F000FE4F808191819AA789A76E0183E2C80E7E
:10080000D11CDB01AB5FBD4F7D015E01B9E2AB0ED8
:10081000B11CF6018081918118161906DCF4C7011C
:100820005DDD8C01FC01E55FFE4FD5018D919C9152
:1008300091838083C801B3DD8091B8049091B9049D
:10084000FC012281D80112963C91321710F7A7DDE6
:100850006BDDDFCF81E08883DF91CF911F910F9116
:10086000FF90EF90DF90CF90BF90AF9008951092DF
:10087000B3041092B2041092B5041092B404109212
:10088000B7041092B604E4E5F5E082E291E0DF01FE
:100890009C011D9221503040E1F7DF01AB5FBE4F5C
:1008A0001C92EE5DFE4F37E1E437F30781F71092BB
:1008B000010210920002E2E0F2E08BE2DF01282F59
:1008C0001D922A95E9F71082BB9634E0E23BF307CC
:1008D000A9F70895AF92BF92DF92EF92FF920F9324
:1008E0001F93CF93DF938091B4049091B504892B2B
:1008F00009F08BC08091B2049091B304892B09F464
:1009000084C0F89481E090E09093B5048093B4049F
:100910000BDD84E0D82EE091B804F091B904DF013A
:10092000A85FBE4F1C92838194819093791D809320
:10093000781DF5DBC091B804D091B9048091781D81
:100940009091791D9C838B83FE01E85FFE4F80812F
:1009500090E089309105F8F6FC018827EE58FF4FAA
:100960008F4F5DC7FE01E05EFE4FE080F180329761
:10097000008111813297208131815E0185EEA81AB4
:100980008EEFB80AF50140817297608171813397CB
:100990008081918193DDF5018081823008F0BBCFA9
:1009A00090818A81981708F0B6CFCE01F8DC27C075
:1009B000FE01E75EFE4F11821082CB5FDE4FD882D0
:1009C0001EC0CB5FDE4F18828091B2049091B304B9
:1009D00001979093B3048093B20411C0B4DDC55F56
:1009E000DE4F9983888397CFF6DDE091B804F091CC
:1009F000B904EB5FFE4F8081833009F08CCF94DC2B
:100A00008ACF67DEF2CFC7DE86CFDF91CF911F910D
:100A10000F91FF90EF90DF90BF90AF900895EF920D
:100A2000FF920F931F932091B4043091B504232BB0
:100A300001F1F8942091B8043091B904F901E85F0C
:100A4000FE4F41E0408332979183808333967183D8
:100A500060837296108231961182108232961182D2
:100A6000108232961182108280E180930B01ACDB00
:100A700008C0E12CF12C00E010E020E030E040E084
:100A80001DDDE091B804F091B904808191811F913E
:100A90000F91FF90EF900895EF92FF920F931F93A5
:100AA0002091B4043091B504232B29F1F894E091FE
:100AB000B804F091B904DF01A85FBE4F21E02C9388
:100AC000129711969C938E93139611967C936E9326
:100AD00083E08283189611961C921E9212961196AC
:100AE0001C921E92EB5EFE4F1182108280E1809379
:100AF0000B016ADB08C0E12CF12C00E010E020E0E3
:100B000030E043E0DBDCE091B804F091B90480818F
:100B100091811F910F91FF90EF9008958091B404FF
:100B20009091B504892B69F0F894E091B804F091A4
:100B3000B904E85FFE4F82E0808380E180930B017F
:100B400043CB08958091B4049091B504892B89F02A
:100B5000E091B804F091B9048281813009F0DECFD0
:100B6000F894E85FFE4F84E0808380E180930B017E
:100B70002BCB0895F89410928000E1E8F0E0108209
:100B800080818860808380818260808380E29EE4AF
:100B90009093890080938800EFE6F0E08081826086
:100BA0008083109285001092840078940895EF92CB
:100BB000FF920F931F93CF93DF938091BA0490918C
:100BC000BB0401969093BB048093BA04C9E5D6E0B8
:100BD00000E010E07E0183E0E81A81E0F80AF70106
:100BE00020813881213079F4343089F08C899D89D5
:100BF00001969D8B8C8B4E855F858417950718F029
:100C000086E088B9FFCF3430A9F4213099F48A897D
:100C10009B892091BA043091BB048217930751F449
:100C20002C853D85820F931F9B8B8A8BCE0185502F
:100C30009140B5DBF7018081813031F488818150AA
:100C4000823010F40F5F1F4FCE5DDE4FF8E1C937E1
:100C5000DF0709F0BFCF023011051CF085E088B92D
:100C6000FFCFDF91CF911F910F91FF90EF900895EB
:100C70001F920F920FB60F9211240BB60F922F9363
:100C80003F934F935F936F937F938F939F93AF9314
:100C9000BF93EF93FF938BDFE091B804F091B90419
:100CA0008281823008F03ADFFF91EF91BF91AF91DE
:100CB0009F918F917F916F915F914F913F912F9174
:100CC0000F900BBE0F900FBE0F901F901895EAE08B
:100CD000F1E080818460808380818860808380816E
:100CE000806180838FEF87B90895C1DDF0DF60E018
:100CF00070E089E391E0D0DE62E070E085E998E0A1
:100D00008EDE38DFE7DD80E090E00895DBD3F2D3BC
:100D10008FD415D2089A10988FC2EF92FF920F933A
:100D20001F93CF93DF93CDB7DEB7CB5FD1090FB65B
:100D3000F894DEBF0FBECDBF80917C1D90917D1DCC
:100D4000019709F0DEC0F3D3182FCDD3133209F089
:100D5000D8C000E010E0E12CF12C80917C1D909136
:100D60007D1D0197D1F7E3D3982FC550DF4F9883AE
:100D7000CB5FD040B8D3C550DF4F9881CB5FD04018
:100D8000953209F04FC082E0E816F104C1F048F452
:100D9000E114F10489F0EA94EF28D9F4E3E3F0E0F8
:100DA00013C083E0E816F10469F084E0E816F1046A
:100DB00081F4E9ECF0E008C0E1E0F0E005C0E5E630
:100DC000F0E002C0E7E9F0E0EC0FFD1FE00FF11FDB
:100DD0001082CE0101962BD59093871780938617AA
:100DE000CE01C39624D59093851780938417CE01A6
:100DF0008B599F4F1CD59093791780937817CE010C
:100E000089569F4F14D59093831780938217CE01F4
:100E100087539F4F0CD590938117809380178AE05A
:100E200062D36FC09C3769F582E0E816F104C9F01F
:100E300050F4E114F10491F081E0E816F104D9F4E2
:100E4000E3E3F0E013C083E0E816F10469F084E026
:100E5000E816F10481F4E9ECF0E008C0E1E0F0E02C
:100E600005C0E5E6F0E002C0E7E9F0E0EC0FFD1FA9
:100E7000E00FF11F10828FEFE81AF80A00E010E08F
:100E80006CCF82E0E816F10401F140F4E114F104C2
:100E900071F081E0E816F10489F05FCF83E0E81695
:100EA000F104D1F084E0E816F104E9F056CF003304
:100EB000110508F052CFE1E0F0E01BC0003311054E
:100EC00008F04BCFE3E3F0E014C00033110508F065
:100ED00044CFE5E6F0E00DC00033110508F03DCF4A
:100EE000E7E9F0E006C00033110508F036CFE9EC81
:100EF000F0E0EC0FFD1FE00FF11F90830F5F1F4F1D
:100F00002CCFC550DF4F0FB6F894DEBF0FBECDBF5C
:100F1000DF91CF911F910F91FF90EF900895209155
:100F20007A1730917B17809178179091791728174D
:100F30003907B9F0809178179091791790937B17C2
:100F400080937A178091781790917917892B11F4F3
:100F5000109808958091781790917917019709F466
:100F6000109A089520917E1730917F1780918217F3
:100F7000909183172817390761F420917C173091DD
:100F80007D1780918017909181172817390709F4F0
:100F90006BC06091821770918317072E000C880B2D
:100FA000990BB3D320E030E04AEF53E40DD4181688
:100FB0001CF484EF91E012C0609182177091831746
:100FC000072E000C880B990BA0D320E030E04AEFED
:100FD00053EC95D387FF06C08CE09EEF9093831768
:100FE000809382176091801770918117072E000CF3
:100FF000880B990B8AD320E030E04AEF54E4E4D325
:1010000018161CF480ED97E012C060918017709163
:101010008117072E000C880B990B77D320E030E066
:101020004AEF54EC6CD387FF06C080E398EF9093AF
:1010300081178093801780918217909183179093E6
:101040007F1780937E1780918017909181179093DE
:101050007D1780937C176091801770918117809124
:10106000821790918317B8C008958091841790914A
:10107000851772D180918617909187170FC10097BD
:1010800041F0EFE3FCE93197F1F700C00000019770
:10109000F6CF0895BED0019761F4809174179091B6
:1010A0007517019731F082E090E090937517809367
:1010B00074178091761790917717029731F080918D
:1010C0007417909175170297C9F481E090E090939E
:1010D0007517809374179093771780937617F89409
:1010E00060E070E084ED9EEF77D084E690E0C7DFAB
:1010F00060E070E080E090E06FD078948AD0892B37
:1011000021F41092751710927417089506DE07DF08
:10111000ACDF28DFBFDF109287171092861710927E
:101120008517109284170EDDF1CF60E070E086E83D
:1011300096E075DC61E070E086E898E070CC099A92
:10114000119A76D22FEF81E19AE7215080409040AA
:10115000E1F700C0000011982FEF85EA9EE02150D2
:1011600080409040E1F700C00000119A2FEF85EA1F
:101170009EE0215080409040E1F700C000001198AF
:101180002FEF85EA9EE0215080409040E1F700C0BB
:101190000000119A2FEF85EA9EE021508040904098
:1011A000E1F700C0000011982FEF85EA9EE0215082
:1011B00080409040E1F700C00000119A39D280E8E9
:1011C00066D22FEF83EC99E0215080409040E1F708
:1011D00000C0000083E85BC21F93CF93DF9300D071
:1011E000CDB7DEB7182F89E86B837A8399834FD206
:1011F0009981892F4CD2812F4AD27A81872F47D269
:101200006B81862F0F900F900F90DF91CF911F91E0
:101210003EC28EE83CD287E03AD280917C1D90910C
:101220007D1D0197D1F71ED221E030E0811102C06F
:1012300020E030E0C90108958DB180638DB98EB191
:101240008F7C8EB91092950010929400A0E9B0E0C6
:101250001C92E1E9F0E0108289E28C938081836145
:10126000808384EC99E090939900809398008CEBB4
:1012700090E09093831D8093821D9093811D8093B5
:10128000801D90939D0080939C008091801D909183
:10129000811D90939B0080939A000895CF92DF92D6
:1012A000EF92FF92CF93DF93EC01BC01990F880B73
:1012B000990B2BD26B017C0120E030E040EA50E436
:1012C00083D2181664F020E030E040EA50ECC70109
:1012D000B60115D287FF05C0CBEFDFEF02C0C5E036
:1012E000D0E08091821D9091831DC80FD91FBE014F
:1012F0000D2E000C880B990B08D26B017C0120E0AD
:1013000030E046E953E460D218161CF48CE291E018
:1013100010C020E030E04AE852E4C701B601EFD146
:1013200087FD05C0D093831DC093821D06C085E450
:1013300090E09093831D8093821D8091821D9091F7
:10134000831D90939D0080939C00DF91CF91FF902F
:10135000EF90DF90CF900895CF92DF92EF92FF92BF
:10136000CF93DF93EC01BC01990F880B990BCDD182
:101370006B017C0120E030E040EA50E425D21816F1
:1013800064F020E030E040EA50ECC701B601B7D18C
:1013900087FF05C0CBEFDFEF02C0C5E0D0E0809152
:1013A000801D9091811DC80FD91FBE010D2E000C0C
:1013B000880B990BAAD16B017C0120E030E046E953
:1013C00053E402D218161CF48CE291E010C020E025
:1013D00030E04AE852E4C701B60191D187FD05C06B
:1013E000D093811DC093801D06C085E490E090934A
:1013F000811D8093801D8091801D9091811D90930F
:101400009B0080939A00DF91CF91FF90EF90DF9047
:10141000CF900895FC01E850FE4F11821082329760
:10142000118210823297118210820895FC01EA50D5
:10143000FE4FA081B181A80FB91F6C93208131812B
:101440002F5F3F4F31832083243F314010F01182C2
:101450001082FC01EC50FE4F20813181243F31404D
:1014600018F0FC01E850FE4F808191810196918334
:1014700080830895DC01AC50BE4F2D913C911197B3
:10148000232BF1F0FC01E850FE4F20813181A901AE
:101490004F5F5F4F5183408340815181443F5140B2
:1014A00010F0118210824D915C91119741505109B9
:1014B00011965C934E93FC01E20FF31F8081089517
:1014C00080E008951092C50087E68093C400E0ECA8
:1014D000F0E080818D7F808386E08093C20088E188
:1014E0008093C10008959091C00095FFFCCF809338
:1014F000C60008951092CD0087E68093CC00E8ECFA
:10150000F0E080E4808388ED8093C90086E08093DA
:10151000CA0080818D7F80838EE79BE17BDF84E83A
:1015200099E178DF10927D1D10927C1D08958091C5
:10153000721D9091731D892B69F08091721D90919D
:10154000731D019721F410927D1D10927C1D8EE772
:101550009BE190CF80E008951F920F920FB60F92FB
:1015600011240BB60F922F933F934F935F936F937A
:101570007F938F939F93AF93BF93EF93FF9380914C
:10158000781B9091791B892B31F084E899E172DF07
:101590008093CE0009C080918219909183198E7F2B
:1015A0009093831980938219FF91EF91BF91AF912E
:1015B0009F918F917F916F915F914F913F912F916B
:1015C0000F900BBE0F900FBE0F901F9018951F929B
:1015D0000F920FB60F9211240BB60F922F933F93D9
:1015E0004F935F936F937F938F939F93AF93BF932B
:1015F000EF93FF936091CE008EE79BE117DF81E0D0
:1016000090E090937D1D80937C1DFF91EF91BF91A1
:10161000AF919F918F917F916F915F914F913F918A
:101620002F910F900BBE0F900FBE0F901F9018952B
:101630001092D50083E38093D400E0EDF0E080E4E5
:10164000808388E98093D10086E08093D2008081F6
:101650008D7F808388E897E1DDDE10927F1D1092F8
:101660007E1D089580917C1990917D19892B69F0D8
:1016700080917C1990917D19019721F410927F1D22
:1016800010927E1D88E897E1F5CE80E00895909154
:10169000D00095FFFCCF8093D60008951F920F9243
:1016A0000FB60F9211240BB60F922F933F934F93C7
:1016B0005F936F937F938F939F93AF93BF93EF93BA
:1016C000FF936091D60088E897E1B0DE81E090E07A
:1016D00090937F1D80937E1DFF91EF91BF91AF91FD
:1016E0009F918F917F916F915F914F913F912F913A
:1016F0000F900BBE0F900FBE0F901F90189540D00B
:1017000008F481E00895E89409C097FB3EF49095B1
:101710008095709561957F4F8F4F9F4F9923A9F0CA
:10172000F92F96E9BB279395F69587957795679559
:10173000B795F111F8CFFAF4BB0F11F460FF1BC09D
:101740006F5F7F4F8F4F9F4F16C0882311F096E930
:1017500011C0772321F09EE8872F762F05C06623DE
:1017600071F096E8862F70E060E02AF09A95660F97
:10177000771F881FDAF7880F9695879597F9089550
:10178000990F0008550FAA0BE0E8FEEF1616170692
:10179000E807F907C0F012161306E407F50798F0FA
:1017A000621B730B840B950B39F40A2661F0232B13
:1017B000242B252B21F408950A2609F4A140A6958F
:1017C0008FEF811D811D0895DBDF08F48FEF0895F1
:1017D000AA1BBB1B51E107C0AA1FBB1FA617B70757
:1017E00010F0A61BB70B881F991F5A95A9F7809573
:1017F0009095BC01CD01089597FB072E16F4009437
:1018000006D077FD08D0E4DF07FC05D03EF49095C4
:1018100081959F4F0895709561957F4F0895EE0FC4
:10182000FF1F881F8BBF0790F691E02D1994FC01D4
:1018300088279927E89421912032E9F3293010F084
:101840002E30C8F32B3239F02D3231F4689403C0B6
:101850000BD0820F911D219120532A30C8F31EF422
:10186000909581959F4F08957AE0979F902D879F3F
:0C187000802D910D11240895F894FFCFF5
:00000001FF
