:100000007AC000008BC0000089C0000087C00000DB
:1000100085C0000083C0000081C000007FC00000D8
:100020007DC000007BC0000079C0000077C00000E8
:1000300075C0000073C0000071C000006FC00000F8
:100040006DC00000C4C6000069C0000067C00000A9
:1000500065C0000063C0000061C000005FC0000018
:100060005DC000005BC0000059C0000057C0000028
:1000700055C0000053C0000051C000004FC0000038
:100080004DC000004BC0000049C0000047C0000048
:100090000C94980B43C000000C945D0B3FC0000013
:1000A0003DC000003BC0000039C0000037C0000068
:1000B00035C0000033C0000031C000002FC0000078
:1000C0002DC000002BC0000029C0000027C0000088
:1000D00025C0000023C0000021C000001FC0000098
:1000E0001DC0000067053F05670575056B058305A5
:1000F00089059605A30511241FBECFEFD1E2DEBF0F
:10010000CDBF00E00CBF28E1A0E0B2E001C01D922D
:10011000A636B207E1F798D60C94780C71CF0F92FF
:100120001F922F923F924F925F926F927F928F9287
:100130009F92AF92BF92CF92DF92EF92FF920F9376
:100140001F932F933F934F935F936F937F938F935F
:100150009F93AF93BF93CF93DF93EF93FF93FCB73E
:10016000FF930FB70F93EDB7FEB7E0935C18F093D2
:100170005D18E0915A18F0915B18EDBFFEBF0F912A
:100180000FBFFF91FCBFFF91EF91DF91CF91BF9126
:10019000AF919F918F917F916F915F914F913F911F
:1001A0002F911F910F91FF90EF90DF90CF90BF9014
:1001B000AF909F908F907F906F905F904F903F9007
:1001C0002F901F900F9018950F921F922F923F9291
:1001D0004F925F926F927F928F929F92AF92BF9257
:1001E000CF92DF92EF92FF920F931F932F933F9343
:1001F0004F935F936F937F938F939F93AF93BF932F
:10020000CF93DF93EF93FF93FCB7FF930FB70F9359
:10021000EDB7FEB7E0935A18F0935B18E0915C18C5
:10022000F0915D18EDBFFEBF0F910FBFFF91FCBFB6
:10023000FF91EF91DF91CF91BF91AF919F918F91FE
:100240007F916F915F914F913F912F911F910F91EE
:10025000FF90EF90DF90CF90BF90AF909F908F90E6
:100260007F906F905F904F903F902F901F900F90D6
:100270000895FFCF8091B4049091B504892B69F063
:10028000F894E091B804F091B904E85FFE4F83E080
:10029000808380E180930B0197CF0895FC0180A1BA
:1002A00091A1409719F48CE088B9FFCFA4A1B5A122
:1002B000AA0FBB1FAE0FBF1F11967C936E9380A138
:1002C00091A1019691A380A324A135A12F5F3F4F57
:1002D0002F703078332334F421503109206F3F6F71
:1002E0002F5F3F4F35A324A30895FC0180A191A166
:1002F000892B19F48DE088B9FFCFA2A1B3A1AA0F71
:10030000BB1FAE0FBF1F8D919C9120A131A1215029
:10031000310931A320A322A133A12F5F3F4F2F70BA
:100320003078332334F421503109206F3F6F2F5F31
:100330003F4F33A322A308958091020590910305B6
:10034000181619069CF482EE94E0CFDF9093B9045E
:100350008093B804FC012381348130935B1820938F
:100360005A18EB5FFE4F82E0808308958091280544
:1003700090912905181619069CF488E095E0B5DFE0
:100380009093B9048093B804FC01238134813093A5
:100390005B1820935A18EB5FFE4F82E0808308952C
:1003A00080914E0590914F05181619069CF48EE227
:1003B00095E09BDF9093B9048093B804FC012381FE
:1003C000348130935B1820935A18EB5FFE4F82E024
:1003D000808308958091DC049091DD04181619063D
:1003E0009CF48CEB94E081DF9093B9048093B80483
:1003F000FC012381348130935B1820935A18EB5F02
:10040000FE4F82E08083089588E188B9FFCFCF93C3
:10041000DF93EC018A81813079F0D8F0823039F0B5
:100420008330E1F4BE018CEB94E038DF1AC0BE01EA
:100430008EE295E033DF15C0BE0188E095E02EDF47
:10044000809128059091290502975CF085E088B994
:10045000FFCFBE0182EE94E021DF03C08CE788B9B4
:10046000FFCFCB5FDE4F81E08883DF91CF9108958E
:100470008F929F92AF92BF92CF92DF92EF92FF92B4
:100480000F93CF93DF93EC01FC013596812C9924D7
:100490009394DF01C4011D920197E9F7E150FF4FEA
:1004A0008AE391E08083319790833197108231976E
:1004B00060833197708331971082DE01A452BF4F61
:1004C000B297808180688083BC83AB83B996718347
:1004D0006083329610829D9611965C934E93398379
:1004E00028830A8310823996F182E0823296D18283
:1004F000C0823296B182A0823296B182A0823296B8
:1005000011821082013021F484E07497808302C04C
:10051000CE017DDF88819981DF91CF910F91FF908E
:10052000EF90DF90CF90BF90AF909F908F90089505
:10053000AF92BF92CF92DF92EF92FF920F931F93F1
:10054000CF93DF93EC018091B2049091B304409774
:1005500099F180915906882371F0ABE7B7E0E1E0AB
:10056000F0E09C91992349F03196AE5DBE4FE031A9
:10057000F105B9F702C0E0E0F0E057016801790148
:10058000042FAB01BE018091B2049091B304019697
:100590009093B3048093B2049F012F5F3F4FA2E278
:1005A000B1E0EA9FC001EB9F900DFA9F900D1124DE
:1005B0008C5A9A4F5DDF02C080E090E0DF91CF91CE
:1005C0001F910F91FF90EF90DF90CF90BF90AF9071
:1005D00008958091000290910102409718F082E006
:1005E00088B9FFCF20910002309101028BE2829FF7
:1005F000F001839FF00D1124EE5FFD4F91E0908399
:100600002091000230910102829FF001839FF00D42
:100610001124EE5FFD4F14A213A22091000230912D
:100620000102829FF001839FF00D1124EE5FFD4FC8
:1006300016A215A22091000230910102829FF001C2
:10064000839FF00D1124EE5FFD4F10A617A280913D
:1006500000029091010201969093010280930002A2
:100660000895AF92BF92CF92DF92EF92FF920F93D5
:100670001F93CF93DF93E091B804F091B904828186
:10068000813019F483E088B9FFCFDF01A35FBE4F4B
:10069000AD90BC9021E0A21AB1088BE28A9DD001F6
:1006A0008B9DB00D1124AE5FBD4F8C91811103C0A5
:1006B00082E088B9FFCF823019F484E088B9FFCF97
:1006C000DF01A15FBE4F2D913C919BE29A9DD0012D
:1006D0009B9DB00D1124AE5FBD4F9A963C932E9317
:1006E0009997833009F03EC019C0C801FEDDEC01C6
:1006F000F70180819181FE01E55FFE4F9183808348
:10070000CE0185DEE091B804F091B90482819A812E
:100710009817B8F4CF017BDE0FDE13C08BE28A9D01
:1007200080018B9D100D1124C8018E5F9D4F6C01BF
:10073000F3E2CF0ED11C7C0129E2E20EF11C0B5F2B
:100740001D4FF601808191811816190674F28BE213
:100750008A9DF0018B9DF00D1124EE5FFD4F81E02D
:10076000808312C08BE28A9DD0018B9DB00D112435
:10077000AE5FBD4F82E08C931296FC93EE9311977F
:10078000EB5FFE4F83E08083DF91CF911F910F914C
:10079000FF90EF90DF90CF90BF90AF900895EF92D1
:1007A000FF920F931F93CF93DF93C091B804D09122
:1007B000B9048A81813019F483E088B9FFCFFE0142
:1007C000E35FFE4F00811181015011098BE2809F90
:1007D000F001819FF00D1124EE5FFD4F80818111AA
:1007E00003C082E088B9FFCF823091F52BE2209FD1
:1007F000C001219F900D11249C012E5F3D4F790176
:10080000D90199968D919C919A97FE01E55FFE4FD3
:100810009183808311968D919C911297F8DD8A8146
:10082000D7011196ED91FC9112979281981718F4C7
:10083000CE01EDDD81DD8BE2809FF001819FF00D27
:100840001124EE5FFD4F1282118281E0808313C07C
:100850008BE2809F7001819FF00C1124BE01C701C3
:100860008B5F9D4F1BDDF701EE5FFD4F83E08083C3
:10087000CB5FDE4F8883DF91CF911F910F91FF9067
:10088000EF900895AF92BF92CF92DF92EF92FF92D6
:100890000F931F93CF93DF932091B8043091B90445
:1008A000F901E35FFE4FA080B18081E0A81AB10892
:1008B0008BE28A9DF0018B9DF00D1124EE5FFD4FC0
:1008C0008081811103C082E088B9FFCF823019F4A2
:1008D00084E088B9FFCF833009F049C0F901E15FB6
:1008E000FE4F808191812BE22A9DF0012B9DF00D1E
:1008F0001124EE5FFD4F92A781A78BE28A9D8001B4
:100900008B9D100D1124CF016F01E3E2CE0ED11C9F
:100910007C01F9E2EF0EF11C0B5F1D4F18C0C801FE
:10092000E4DCEC01F70180819181FE01E55FFE4F7F
:1009300091838083CE016BDDE091B804F091B9041E
:1009400082819A81981718F4CF0161DDF5DCF601F8
:10095000808191811816190614F38BE28A9DF001AB
:100960008B9DF00D1124EE5FFD4F81E08083DF91C0
:10097000CF911F910F91FF90EF90DF90CF90BF909C
:10098000AF9008951092B3041092B2041092B5047F
:100990001092B4041092B7041092B604E4E5F5E0A6
:1009A00024E737E182E291E0DF01AC011D92415082
:1009B0005040E1F7DF01AB5FBE4F1C92EE5DFE4F92
:1009C000E217F30789F71092010210920002E2E0A9
:1009D000F2E022EB34E08BE2DF01482F1D924A95D2
:1009E000E9F71082BB96E217F307B1F70895AF92CB
:1009F000BF92DF92EF92FF920F931F93CF93DF93FB
:100A00008091B4049091B504892B09F09EC0809127
:100A1000B2049091B304892B09F497C0F89481E053
:100A200090E09093B5048093B40486DC6894DD2450
:100A3000D2F8E091B804F091B904DF01A85FBE4F8D
:100A40001C928381948190935B1880935A1867DB82
:100A5000C091B804D091B90480915A1890915B1854
:100A60009C838B83FE01E85FFE4FE081F0E0E9307C
:100A7000F105F8F68827EE58FF4F8F4F0CC7FE019F
:100A8000E05EFE4FE080F180329700811181329765
:100A9000208131815E0185EEA81A8EEFB80AF5013A
:100AA000408172976081718133978081918140DDAF
:100AB000F5018081823008F0BCCFF50190818A81F8
:100AC000981708F0B6CFCE01A2DC36DCB2CFCE014B
:100AD0009EDC32DCAECFFE01E75EFE4F118210825B
:100AE000CB5FDE4FD88228DCA4CFCB5FDE4F1882ED
:100AF0008091B2049091B30401979093B3048093D2
:100B0000B2041ADC96CF65DDC55FDE4F998388831A
:100B100090CFA7DDE091B804F091B904EB5FFE4FF0
:100B20008081833009F085CF07DC83CF38DEE09108
:100B3000B804F091B904EB5FFE4F8081833009F077
:100B400078CFFADB76CF9EDE74CFDF91CF911F9105
:100B50000F91FF90EF90DF90BF90AF900895EF92CC
:100B6000FF920F931F932091B4043091B504232B6F
:100B700001F1F8942091B8043091B904F901E85FCB
:100B8000FE4F41E040833297918380833396718397
:100B90006083729610823196118210823296118291
:100BA000108232961182108280E180930B010CDB5F
:100BB00008C0E12CF12C00E010E020E030E040E043
:100BC000B7DCE091B804F091B904808191811F9164
:100BD0000F91FF90EF900895EF92FF920F931F9364
:100BE0002091B4043091B504232B29F1F894E091BD
:100BF000B804F091B904DF01A85FBE4F21E02C9347
:100C0000129711969C938E93139611967C936E93E4
:100C100083E08283189611961C921E92129611966A
:100C20001C921E92EB5EFE4F1182108280E1809337
:100C30000B01CADA08C0E12CF12C00E010E020E042
:100C400030E043E075DCE091B804F091B9048081B4
:100C500091811F910F91FF90EF9008958091B404BE
:100C60009091B504892B69F0F894E091B804F09163
:100C7000B904E85FFE4F82E0808380E180930B013E
:100C8000A3CA08958091B4049091B504892B91F082
:100C9000E091B804F091B9048281813011F0DECF87
:100CA0000895F894E85FFE4F84E0808380E18093AC
:100CB0000B018ACA0895F89410928000E1E8F0E0F0
:100CC000108280818860808380818260808380E25E
:100CD0009EE49093890080938800EFE6F0E08081A5
:100CE0008260808310928500109284007894089529
:100CF000AF92BF92CF92DF92EF92FF920F931F932A
:100D0000CF93DF938091BA049091BB0401969093A6
:100D1000BB048093BA0406E515E0C9E5D6E00F2EC2
:100D2000F9E7CF2EF8E1DF2EF02DA12CB12C7801C0
:100D3000F8018081813071F58881843069F08C8977
:100D40009D8901969D8B8C8B2E853F8582179307FD
:100D500078F186E088B9FFCF8A899B892091BA040F
:100D60003091BB0482179307A9F42C853D85820F2F
:100D7000931F9B8B8A8BCE018550914048DBF701F6
:100D80008081813039F488818150823018F4FFEFFE
:100D9000AF1ABF0A0E5D1E4FCE5DDE4FCC15DD05CE
:100DA00031F682E0A816B1043CF085E088B9FFCFA7
:100DB0008881843021F7D0CFDF91CF911F910F919F
:100DC000FF90EF90DF90CF90BF90AF9008951F926B
:100DD0000F920FB60F9211240BB60F922F933F93E1
:100DE0004F935F936F937F938F939F93AF93BF9333
:100DF000EF93FF937DDFE091B804F091B904828115
:100E0000823008F02BDFFF91EF91BF91AF919F915E
:100E10008F917F916F915F914F913F912F910F90A3
:100E20000BBE0F900FBE0F901F901895EAE0F1E0F7
:100E300080818460808380818860808380818061FC
:100E400080838FEF87B908959DDDF0DF60E070E06B
:100E500089E391E0C1DE62E070E08FE499E07FDE3B
:100E60002ADFC5DD80E090E00895DBD3F3D391D491
:100E700021D2089A109883C20895BF92CF92DF9230
:100E8000EF92FF920F931F93CF93DF93CDB7DEB70F
:100E9000CA5FD1090FB6F894DEBF0FBECDBF8091F7
:100EA0005E1890915F18019709F021C1F0D3182FB7
:100EB000C9D3133209F01BC10DC1E9D3182FC2D316
:100EC000153209F05FC082E0E816F104D9F038F479
:100ED000E114F10469F0EA94EF2879F02AC093E074
:100EE000E916F104B9F084E0E816F104D9F021C064
:100EF000FE01EC0DFD1D11821CC0FE01EC0DFD1D5F
:100F000013AA17C0E5E6F0E0EC0FFD1FEC0DFD1D88
:100F100010820FC0E7E9F0E0EC0FFD1FEC0DFD1DA6
:100F2000108207C0E9ECF0E0EC0FFD1FEC0DFD1D99
:100F30001082CE010196B7D49093831780938217C5
:100F4000CE01C396B0D49093811780938017CE01C1
:100F50008B599F4FA8D49093751780937417CE0127
:100F600089569F4FA0D490937F1780937E17CE0110
:100F700087539F4F98D490937D1780937C178AE076
:100F800061D3B5C01C3709F043C092E0E916F10403
:100F900011F140F4E114F10471F091E0E916F1046B
:100FA00091F030C083E0E816F104E9F094E0E9162E
:100FB000F10409F127C0E1E0F0E0EC0FFD1FEC0DBA
:100FC000FD1D10821FC0E3E3F0E0EC0FFD1FEC0DF0
:100FD000FD1D108217C0E5E6F0E0EC0FFD1FEC0DE3
:100FE000FD1D10820FC0E7E9F0E0EC0FFD1FEC0DD6
:100FF000FD1D108207C0E9ECF0E0EC0FFD1FEC0DC9
:10100000FD1D10828FEFE81AF80ACB2CD02E68C095
:1010100092E0E916F10489F140F4E114F10471F071
:1010200091E0E916F104D1F05BC083E0E816F10429
:1010300099F194E0E916F104F1F152C080E3C81689
:10104000D10408F04DC0E1E0F0E0EC0FFD1FEC0D25
:10105000FD1D1083C60101966C0142C090E3C916C4
:10106000D104F0F5E3E3F0E0EC0FFD1FEC0DFD1D06
:101070001083C60101966C0133C090E3C916D104F8
:1010800078F5E5E6F0E0EC0FFD1FEC0DFD1D10839B
:10109000C60101966C0124C090E3C916D10400F585
:1010A000E7E9F0E0EC0FFD1FEC0DFD1D1083C6011C
:1010B00001966C0115C090E3C916D10488F4E9ECDF
:1010C000F0E0EC0FFD1FEC0DFD1D1083C601019635
:1010D0006C0106C0C12CD12CE12CF12CB12C00E00C
:1010E00080915E1890915F180197D1F7E6CEC650B7
:1010F000DF4F0FB6F894DEBF0FBECDBFDF91CF91AB
:101100001F910F91FF90EF90DF90CF90BF900895C7
:1011100020917617309177178091741790917517F9
:1011200028173907B9F0809174179091751790932B
:101130007717809376178091741790917517892B84
:1011400011F4109808958091741790917517019774
:1011500009F4109A089520917A1730917B178091A5
:101160007E1790917F172817390761F4209178171F
:101170003091791780917C1790917D172817390746
:1011800009F473C060917E1770917F17072E000CD1
:10119000880B990B1DD320E030E04AEF53E477D35E
:1011A00018163CF484EF91E090937F1780937E179C
:1011B00016C060917E1770917F17072E000C880B68
:1011C000990B06D320E030E04AEF53ECFBD28823A2
:1011D00034F48CE09EEF90937F1780937E1760919C
:1011E0007C1770917D17072E000C880B990BF0D29D
:1011F00020E030E04AEF54E44AD318163CF480ED86
:1012000097E090937D1780937C1716C060917C17B0
:1012100070917D17072E000C880B990BD9D220E016
:1012200030E04AEF54ECCED2882334F480E398EFD8
:1012300090937D1780937C1780917E1790917F17F4
:1012400090937B1780937A1780917C1790917D17EC
:10125000909379178093781760917C1770917D1720
:1012600080917E1790917F1773C0089580918017A9
:101270009091811718D18091821790918317B1C0F6
:101280000895FBDD45DFF2DF66DF109283171092D1
:1012900082171092811710928017F4DCF2CF60E071
:1012A00070E085E397E05BDC61E070E081E499E069
:1012B00056CC0895099A119A6CD22FEF81E19AE7E2
:1012C000215080409040E1F700C0000011982FEFBE
:1012D00085EA9EE0215080409040E1F700C0000088
:1012E000119A2FEF85EA9EE0215080409040E1F76F
:1012F00000C0000011982FEF85EA9EE02150804049
:101300009040E1F700C00000119A2FEF85EA9EE0BF
:10131000215080409040E1F700C0000011982FEF6D
:1013200085EA9EE0215080409040E1F700C0000037
:10133000119A2FD280E83ED22FEF83EC99E0215012
:1013400080409040E1F700C0000083E833C2089578
:101350000F931F93CF93DF93182F092FC62FD72FEB
:1013600089E828D2802F26D2812F24D28D2F22D215
:101370008C2F20D2DF91CF911F910F9108958DB1C5
:1013800080638DB98EB18F7C8EB9109295001092CA
:101390009400A0E9B0E01C92E1E9F0E0108289E25B
:1013A0008C9380818361808384EC99E09093990091
:1013B000809398008CEB90E090936518809364186C
:1013C000909363188093621890939D0080939C0083
:1013D000809162189091631890939B0080939A007B
:1013E0000895CF92DF92EF92FF92CF93DF93EC01BB
:1013F000BC01990F880B990BEBD16B017C0120E0AC
:1014000030E040EA50E443D2181664F020E030E0C7
:1014100040EA50ECC701B601D5D188232CF4CBEFBC
:10142000DFEF02C0C5E0D0E08091641890916518AC
:10143000C80FD91FBE010D2E000C880B990BC8D107
:101440006B017C0120E030E046E953E420D218161D
:101450003CF48CE291E0909365188093641814C07A
:1014600020E030E04AE852E4C701B601ABD188235E
:101470002CF0D0936518C093641806C085E490E002
:101480009093651880936418809164189091651802
:1014900090939D0080939C00DF91CF91FF90EF90FF
:1014A000DF90CF900895CF92DF92EF92FF92CF938B
:1014B000DF93EC01BC01990F880B990B89D16B016B
:1014C0007C0120E030E040EA50E4E1D1181664F0FD
:1014D00020E030E040EA50ECC701B60173D1882328
:1014E0002CF4CBEFDFEF02C0C5E0D0E080916218B2
:1014F00090916318C80FD91FBE010D2E000C880BE8
:10150000990B66D16B017C0120E030E046E953E4A1
:10151000BED118163CF48CE291E09093631880934E
:10152000621814C020E030E04AE852E4C701B60176
:1015300049D188232CF0D0936318C093621806C059
:1015400085E490E09093631880936218809162180C
:101550009091631890939B0080939A00DF91CF91B4
:10156000FF90EF90DF90CF900895FC01E859FF4F76
:10157000118210823297118210823297118210826A
:101580000895FC01EA59FF4FA081B181A80FB91F4E
:101590006C93208131812F5F3F4F3183208324362C
:1015A000310510F011821082FC01EC59FF4F2081AF
:1015B00031812436310530F4808191810196918307
:1015C00080830895FC01E859FF4F80819181019645
:1015D000918380830895FC01EC59FF4F2081318174
:1015E000232BE9F0349620813181A9014F5F5F4FB1
:1015F00051834083408151814436510510F011825E
:101600001082FC01EC59FF4F40815181415051093A
:1016100051834083FC01E20FF31F8081089580E035
:1016200008951092C50087E68093C400E0ECF0E0D6
:1016300080818D7F808386E08093C20088E18093E3
:10164000C1000895E0ECF0E0908195FFFDCF80931C
:10165000C60008951092CD0087E68093CC00E8EC98
:10166000F0E080E4808388ED8093C90086E0809379
:10167000CA0080818D7F808380EF97E176DF86E8E6
:1016800097E173DF10925F1810925E1808958091B1
:10169000541890915518892B71F08091541890919D
:1016A0005518019721F410925F1810925E1880EF80
:1016B00097E191CF089580E008951F920F920FB6A1
:1016C0000F9211240BB60F922F933F934F935F937A
:1016D0006F937F938F939F93AF93BF93EF93FF93FA
:1016E0008091EA179091EB17892B31F086E897E10A
:1016F00072DF8093CE0009C0809184179091851786
:101700008E7F9093851780938417FF91EF91BF91FF
:10171000AF919F918F917F916F915F914F913F9189
:101720002F910F900BBE0F900FBE0F901F9018952A
:101730001F920F920FB60F9211240BB60F922F9398
:101740003F934F935F936F937F938F939F93AF9349
:10175000BF93EF93FF936091CE0080EF97E111DF8D
:1017600081E090E090935F1880935E18FF91EF9175
:10177000BF91AF919F918F917F916F915F914F91A9
:101780003F912F910F900BBE0F900FBE0F901F90A7
:1017900018951092D50083E38093D400E0EDF0E03B
:1017A00080818D7F808386E08093D20088E1809362
:1017B000D1000895E0EDF0E0908195FFFDCF80939A
:1017C000D600089540D008F481E00895E89409C057
:1017D00097FB3EF490958095709561957F4F8F4F64
:1017E0009F4F9923A9F0F92F96E9BB279395F6957A
:1017F000879577956795B795F111F8CFFAF4BB0FF8
:1018000011F460FF1BC06F5F7F4F8F4F9F4F16C05B
:10181000882311F096E911C0772321F09EE8872FE5
:10182000762F05C0662371F096E8862F70E060E0A1
:101830002AF09A95660F771F881FDAF7880F96951A
:10184000879597F90895990F0008550FAA0BE0E8BE
:10185000FEEF16161706E807F907C0F01216130672
:10186000E407F50798F0621B730B840B950B39F4B2
:101870000A2661F0232B242B252B21F408950A2618
:1018800009F4A140A6958FEF811D811D0895DBDF2E
:1018900008F48FEF0895EE0FFF1F881F8BBF07908E
:1018A000F691E02D1994FC0188279927E89421915D
:1018B0002032E9F3293010F02E30C8F32B3239F002
:1018C0002D3231F4689403C00BD0820F911D219109
:1018D00020532A30C8F31EF4909581959F4F0895A8
:1018E0007AE0979F902D879F802D910D1124089568
:0418F000F894FFCF9A
:00000001FF
